{
  "_format": "hh-sol-artifact-1",
  "contractName": "Crowdfunding",
  "sourceName": "contracts/Crowdfunding.sol",
  "abi": [
    {
      "inputs": [
        {
          "internalType": "address",
          "name": "rewardTokenAddress",
          "type": "address"
        }
      ],
      "stateMutability": "nonpayable",
      "type": "constructor"
    },
    {
      "inputs": [],
      "name": "AlreadyFinalized",
      "type": "error"
    },
    {
      "inputs": [],
      "name": "BadId",
      "type": "error"
    },
    {
      "inputs": [],
      "name": "CampaignEnded",
      "type": "error"
    },
    {
      "inputs": [],
      "name": "CampaignNotEnded",
      "type": "error"
    },
    {
      "inputs": [],
      "name": "DurationZero",
      "type": "error"
    },
    {
      "inputs": [],
      "name": "GoalZero",
      "type": "error"
    },
    {
      "inputs": [],
      "name": "NotCreator",
      "type": "error"
    },
    {
      "inputs": [],
      "name": "NotFinalized",
      "type": "error"
    },
    {
      "inputs": [],
      "name": "NotSuccessful",
      "type": "error"
    },
    {
      "inputs": [],
      "name": "RefundFailed",
      "type": "error"
    },
    {
      "inputs": [],
      "name": "RefundNothing",
      "type": "error"
    },
    {
      "inputs": [],
      "name": "TitleEmpty",
      "type": "error"
    },
    {
      "inputs": [],
      "name": "WithdrawFailed",
      "type": "error"
    },
    {
      "inputs": [],
      "name": "WithdrawNothing",
      "type": "error"
    },
    {
      "inputs": [],
      "name": "ZeroValue",
      "type": "error"
    },
    {
      "anonymous": false,
      "inputs": [
        {
          "indexed": true,
          "internalType": "uint256",
          "name": "id",
          "type": "uint256"
        },
        {
          "indexed": true,
          "internalType": "address",
          "name": "creator",
          "type": "address"
        },
        {
          "indexed": false,
          "internalType": "string",
          "name": "title",
          "type": "string"
        },
        {
          "indexed": false,
          "internalType": "uint256",
          "name": "goalWei",
          "type": "uint256"
        },
        {
          "indexed": false,
          "internalType": "uint64",
          "name": "deadline",
          "type": "uint64"
        }
      ],
      "name": "CampaignCreated",
      "type": "event"
    },
    {
      "anonymous": false,
      "inputs": [
        {
          "indexed": true,
          "internalType": "uint256",
          "name": "id",
          "type": "uint256"
        },
        {
          "indexed": true,
          "internalType": "address",
          "name": "contributor",
          "type": "address"
        },
        {
          "indexed": false,
          "internalType": "uint256",
          "name": "amountWei",
          "type": "uint256"
        },
        {
          "indexed": false,
          "internalType": "uint256",
          "name": "rewardMinted",
          "type": "uint256"
        }
      ],
      "name": "Contributed",
      "type": "event"
    },
    {
      "anonymous": false,
      "inputs": [
        {
          "indexed": true,
          "internalType": "uint256",
          "name": "id",
          "type": "uint256"
        },
        {
          "indexed": false,
          "internalType": "bool",
          "name": "successful",
          "type": "bool"
        }
      ],
      "name": "Finalized",
      "type": "event"
    },
    {
      "anonymous": false,
      "inputs": [
        {
          "indexed": true,
          "internalType": "uint256",
          "name": "id",
          "type": "uint256"
        },
        {
          "indexed": true,
          "internalType": "address",
          "name": "contributor",
          "type": "address"
        },
        {
          "indexed": false,
          "internalType": "uint256",
          "name": "amountWei",
          "type": "uint256"
        }
      ],
      "name": "Refunded",
      "type": "event"
    },
    {
      "anonymous": false,
      "inputs": [
        {
          "indexed": true,
          "internalType": "uint256",
          "name": "id",
          "type": "uint256"
        },
        {
          "indexed": true,
          "internalType": "address",
          "name": "creator",
          "type": "address"
        },
        {
          "indexed": false,
          "internalType": "uint256",
          "name": "amountWei",
          "type": "uint256"
        }
      ],
      "name": "Withdrawn",
      "type": "event"
    },
    {
      "inputs": [],
      "name": "FINALIZED_MASK",
      "outputs": [
        {
          "internalType": "uint8",
          "name": "",
          "type": "uint8"
        }
      ],
      "stateMutability": "view",
      "type": "function"
    },
    {
      "inputs": [],
      "name": "RATE",
      "outputs": [
        {
          "internalType": "uint256",
          "name": "",
          "type": "uint256"
        }
      ],
      "stateMutability": "view",
      "type": "function"
    },
    {
      "inputs": [],
      "name": "SUCCESSFUL_MASK",
      "outputs": [
        {
          "internalType": "uint8",
          "name": "",
          "type": "uint8"
        }
      ],
      "stateMutability": "view",
      "type": "function"
    },
    {
      "inputs": [],
      "name": "campaignCount",
      "outputs": [
        {
          "internalType": "uint256",
          "name": "",
          "type": "uint256"
        }
      ],
      "stateMutability": "view",
      "type": "function"
    },
    {
      "inputs": [
        {
          "internalType": "uint256",
          "name": "",
          "type": "uint256"
        }
      ],
      "name": "campaigns",
      "outputs": [
        {
          "internalType": "address",
          "name": "creator",
          "type": "address"
        },
        {
          "internalType": "bytes32",
          "name": "titleHash",
          "type": "bytes32"
        },
        {
          "internalType": "uint128",
          "name": "goalWei",
          "type": "uint128"
        },
        {
          "internalType": "uint256",
          "name": "totalRaised",
          "type": "uint256"
        },
        {
          "internalType": "uint64",
          "name": "deadline",
          "type": "uint64"
        },
        {
          "internalType": "uint8",
          "name": "flags",
          "type": "uint8"
        }
      ],
      "stateMutability": "view",
      "type": "function"
    },
    {
      "inputs": [
        {
          "internalType": "uint256",
          "name": "id",
          "type": "uint256"
        }
      ],
      "name": "contribute",
      "outputs": [],
      "stateMutability": "payable",
      "type": "function"
    },
    {
      "inputs": [
        {
          "internalType": "uint256",
          "name": "",
          "type": "uint256"
        },
        {
          "internalType": "address",
          "name": "",
          "type": "address"
        }
      ],
      "name": "contributions",
      "outputs": [
        {
          "internalType": "uint256",
          "name": "",
          "type": "uint256"
        }
      ],
      "stateMutability": "view",
      "type": "function"
    },
    {
      "inputs": [
        {
          "internalType": "string",
          "name": "title",
          "type": "string"
        },
        {
          "internalType": "uint128",
          "name": "goalWei",
          "type": "uint128"
        },
        {
          "internalType": "uint64",
          "name": "durationSeconds",
          "type": "uint64"
        }
      ],
      "name": "createCampaign",
      "outputs": [
        {
          "internalType": "uint256",
          "name": "id",
          "type": "uint256"
        }
      ],
      "stateMutability": "nonpayable",
      "type": "function"
    },
    {
      "inputs": [
        {
          "internalType": "uint256",
          "name": "id",
          "type": "uint256"
        }
      ],
      "name": "finalize",
      "outputs": [],
      "stateMutability": "nonpayable",
      "type": "function"
    },
    {
      "inputs": [
        {
          "internalType": "uint256",
          "name": "id",
          "type": "uint256"
        }
      ],
      "name": "refund",
      "outputs": [],
      "stateMutability": "nonpayable",
      "type": "function"
    },
    {
      "inputs": [],
      "name": "rewardToken",
      "outputs": [
        {
          "internalType": "contract RewardToken",
          "name": "",
          "type": "address"
        }
      ],
      "stateMutability": "view",
      "type": "function"
    },
    {
      "inputs": [
        {
          "internalType": "uint256",
          "name": "id",
          "type": "uint256"
        }
      ],
      "name": "withdraw",
      "outputs": [],
      "stateMutability": "nonpayable",
      "type": "function"
    }
  ],
  "bytecode": "0x60a060405234801561001057600080fd5b50604051610e60380380610e6083398101604081905261002f91610040565b6001600160a01b0316608052610070565b60006020828403121561005257600080fd5b81516001600160a01b038116811461006957600080fd5b9392505050565b608051610dce610092600039600081816102750152610ada0152610dce6000f3fe6080604052600436106100a65760003560e01c80633d891f59116100645780633d891f59146101d8578063664e9704146102105780637274e30d14610226578063c1cbbca71461023b578063c2d115871461024e578063f7c618c11461026357600080fd5b80626e2956146100ab57806305261aea146100de578063070b5ca714610100578063141961bc14610127578063278ecde1146101985780632e1a7d4d146101b8575b600080fd5b3480156100b757600080fd5b506100cb6100c6366004610b80565b6102af565b6040519081526020015b60405180910390f35b3480156100ea57600080fd5b506100fe6100f9366004610c29565b6104b1565b005b34801561010c57600080fd5b50610115600181565b60405160ff90911681526020016100d5565b34801561013357600080fd5b50610147610142366004610c29565b6105ee565b604080516001600160a01b03909716875260208701959095526001600160801b0390931693850193909352606084015267ffffffffffffffff909116608083015260ff1660a082015260c0016100d5565b3480156101a457600080fd5b506100fe6101b3366004610c29565b610659565b3480156101c457600080fd5b506100fe6101d3366004610c29565b610813565b3480156101e457600080fd5b506100cb6101f3366004610c42565b600160209081526000928352604080842090915290825290205481565b34801561021c57600080fd5b506100cb6103e881565b34801561023257600080fd5b506000546100cb565b6100fe610249366004610c29565b6109cd565b34801561025a57600080fd5b50610115600281565b34801561026f57600080fd5b506102977f000000000000000000000000000000000000000000000000000000000000000081565b6040516001600160a01b0390911681526020016100d5565b60008381036102d157604051635d0ff12d60e01b815260040160405180910390fd5b826001600160801b03166000036102fb5760405163a85506d760e01b815260040160405180910390fd5b8167ffffffffffffffff1660000361032657604051631c7a381360e21b815260040160405180910390fd5b60006103328342610c94565b905060006040518060c00160405280336001600160a01b031681526020018888604051602001610363929190610ce5565b60408051808303601f19018152918152815160209283012083526001600160801b0389811684840152600084830181905267ffffffffffffffff8881166060808801919091526080968701839052885460018082018b55998452868420895160059092020180546001600160a01b0319166001600160a01b0390921691909117815595880151868a0155938701516002860180546fffffffffffffffffffffffffffffffff19169190941617909255918501516003840155928401516004909201805460a0909501519290931668ffffffffffffffffff1990941693909317600160401b60ff909216919091021790555461045e9190610d01565b9150336001600160a01b0316827fddfea1a33f1733ad32d95a8752c3134ecadd1a6c60270543ebbf389f4ad1b0e1888888866040516104a09493929190610d1a565b60405180910390a350949350505050565b60005481106104d3576040516308e235ff60e01b815260040160405180910390fd5b60008082815481106104e7576104e7610d58565b60009182526020909120600460059092020190810154909150600160401b9004600116156105285760405163475a253560e01b815260040160405180910390fd5b600481015467ffffffffffffffff164210156105575760405163cc76115360e01b815260040160405180910390fd5b60048101805460ff60401b1916600160401b179055600281015460038201546001600160801b03909116118015906105ad5760048201805460ff60401b1981166002600160401b9283900460ff16179091021790555b827f82693b732f9696c8a914b820dd6c52544bd61b844bbd4c8707253df9340cf6b7826040516105e1911515815260200190565b60405180910390a2505050565b600081815481106105fe57600080fd5b6000918252602090912060059091020180546001820154600283015460038401546004909401546001600160a01b03909316945090926001600160801b039091169167ffffffffffffffff811690600160401b900460ff1686565b600054811061067b576040516308e235ff60e01b815260040160405180910390fd5b600080828154811061068f5761068f610d58565b600091825260208220600460059092020190810154909250600160401b900460011690036106d057604051630df706ad60e11b815260040160405180910390fd5b6004810154600160401b9004600216156106fd5760405163475a253560e01b815260040160405180910390fd5b60008281526001602090815260408083203384529091528120549081900361073857604051639546544360e01b815260040160405180910390fd5b60008381526001602090815260408083203384529091528120819055600383018054839290610768908490610d01565b9091555050604051600090339083908381818185875af1925050503d80600081146107af576040519150601f19603f3d011682016040523d82523d6000602084013e6107b4565b606091505b50509050806107d657604051633c31275160e21b815260040160405180910390fd5b604051828152339085907f7ca5472b7ea78c2c0141c5a12ee6d170cf4ce8ed06be3d22c8252ddfc7a6a2c49060200160405180910390a350505050565b6000548110610835576040516308e235ff60e01b815260040160405180910390fd5b600080828154811061084957610849610d58565b600091825260208220600460059092020190810154909250600160401b9004600116900361088a57604051630df706ad60e11b815260040160405180910390fd5b6004810154600160401b90046002166000036108b95760405163af6eefa360e01b815260040160405180910390fd5b80546001600160a01b03163381146108e4576040516393687c0b60e01b815260040160405180910390fd5b6003820154600081900361090b57604051636af7a80960e11b815260040160405180910390fd5b6000600384018190556040516001600160a01b0384169083908381818185875af1925050503d806000811461095c576040519150601f19603f3d011682016040523d82523d6000602084013e610961565b606091505b505090508061098357604051631d42c86760e21b815260040160405180910390fd5b83546040518381526001600160a01b039091169086907fcf7d23a3cbe4e8b36ff82fd1b05b1b17373dc7804b4ebbd6e2356716ef2023729060200160405180910390a35050505050565b60005481106109ef576040516308e235ff60e01b815260040160405180910390fd5b6000808281548110610a0357610a03610d58565b60009182526020909120600590910201600481015490915067ffffffffffffffff164210610a445760405163154eb81560e21b815260040160405180910390fd5b34600003610a6557604051637c946ed760e01b815260040160405180910390fd5b34816003016000828254610a799190610d6e565b9091555050600082815260016020908152604080832033845290915281208054349290610aa7908490610d6e565b9091555060009050610abb6103e834610d81565b6040516340c10f1960e01b8152336004820152602481018290529091507f00000000000000000000000000000000000000000000000000000000000000006001600160a01b0316906340c10f1990604401600060405180830381600087803b158015610b2657600080fd5b505af1158015610b3a573d6000803e3d6000fd5b505060408051348152602081018590523393508692507fdcfa71ee125a676f843733d9d39dce2c918ecf9e92f96db4f24bdb5244ed68a0910160405180910390a3505050565b60008060008060608587031215610b9657600080fd5b843567ffffffffffffffff80821115610bae57600080fd5b818701915087601f830112610bc257600080fd5b813581811115610bd157600080fd5b886020828501011115610be357600080fd5b60209283019650945090860135906001600160801b0382168214610c0657600080fd5b9092506040860135908082168214610c1d57600080fd5b50939692955090935050565b600060208284031215610c3b57600080fd5b5035919050565b60008060408385031215610c5557600080fd5b8235915060208301356001600160a01b0381168114610c7357600080fd5b809150509250929050565b634e487b7160e01b600052601160045260246000fd5b67ffffffffffffffff818116838216019080821115610cb557610cb5610c7e565b5092915050565b81835281816020850137506000828201602090810191909152601f909101601f19169091010190565b602081526000610cf9602083018486610cbc565b949350505050565b81810381811115610d1457610d14610c7e565b92915050565b606081526000610d2e606083018688610cbc565b90506001600160801b038416602083015267ffffffffffffffff8316604083015295945050505050565b634e487b7160e01b600052603260045260246000fd5b80820180821115610d1457610d14610c7e565b8082028115828204841417610d1457610d14610c7e56fea2646970667358221220f2ed462a27a27be7d048be7947108a74ad2943c12e08f3648e3a8bea709cdc6064736f6c63430008180033",
  "linkReferences": {},
  "deployedLinkReferences": {}
}